:100000000C9434000C943E000C943E000C943E0082
:100010000C943E000C943E000C943E000C943E0068
:100020000C943E000C943E000C943E000C943E0058
:100030000C943E000C943E000C943E000C943E0048
:100040000C943E000C943E000C943E000C943E0038
:100050000C943E000C943E000C943E000C943E0028
:100060000C943E000C943E0011241FBECFEFD8E04C
:10007000DEBFCDBF0E9440000C945C000C940000D9
:1000800087B1816087B988B1816088B92FEF83ED2E
:1000900090E3215080409040E1F700C0000088B11B
:1000A0008E7F88B92FEF83ED90E321508040904000
:0C00B000E1F700C00000E7CFF894FFCF9C
:00000001FF
